:020000040800F2
:10000000E8060020C5010008E31500087F15000878
:10001000E115000883040008DD1A00080000000054
:10002000000000000000000000000000E7150008CC
:100030008504000800000000E5150008DD01000847
:10004000DF010008DF010008DF010008DF01000810
:10005000DF010008DF010008DF010008DF01000800
:10006000DF010008DF010008DF010008DF010008F0
:10007000DF010008DF010008DF010008DF010008E0
:10008000DF010008DF010008DF010008DF010008D0
:10009000DF010008DF010008DF010008DF010008C0
:1000A000DF0100088D160008DF010008DF010008ED
:1000B000DF010008DF010008DF010008DF010008A0
:1000C000DF010008DF010008DF010008DF01000890
:1000D000DF010008DF010008D11A0008DF01000875
:1000E000DF010008DF010008DF010008DF01000870
:1000F000DF010008DF010008DF010008DF01000860
:10010000DF010008DF010008DF010008DF0100084F
:1001100065170008DF010008DF010008DF010008A3
:10012000DF010008DF010008DF010008DF0100082F
:10013000DF010008DF010008DF010008DF0100081F
:10014000DF010008DF010008DF010008DF0100080F
:10015000DF010008DF010008DF010008DF010008FF
:10016000DF010008DF010008DF010008DF010008EF
:10017000DF010008DF010008DF01000800000000C7
:10018000DF010008DF010008DF010008DF010008CF
:10019000DF010008DF010008DF010008DF010008BF
:1001A000DF010008DF010008DF010008DFF810D0E0
:1001B00000F0F4F800480047AD1C0008AFF30080E1
:1001C000E80600200648804706480047FEE7FEE7AD
:1001D000FEE7FEE7FEE7FEE7FEE7FEE7FEE7FEE7F7
:1001E00071160008AD0100082DE9F05F05460020FA
:1001F00092469B4688460646814640241BE0284698
:1002000041464746224600F081F853465A46C01AF6
:10021000914110D311461846224600F068F82D1A75
:1002200067EB01084F4622460120002100F05FF8ED
:1002300017EB00094E41201EA4F10104DFDC484603
:1002400031462A464346BDE8F09FD2B201E000F8AD
:10025000012B491EFBD270470022F6E710B513466A
:100260000A4604461946FFF7F0FF204610BD421C1F
:1002700010F8011B0029FBD1801A7047034611F8C2
:10028000012B00F8012B002AF9D118467047000015
:1002900070B50F4D00B92868002412E00A4602E04C
:1002A0009E4203D0521C1378002BF9D1DAB22243BC
:1002B00005D02BB124B1002100F8011B04E0044655
:1002C000401C0678002EE9D12860204670BD000051
:1002D0001800002070B5064601F016FC04680546BB
:1002E0000A220021304600F021F82C6070BD202A3F
:1002F00004DB203A00FA02F1002070479140C2F17D
:10030000200320FA03F3194390407047202A04DBAE
:10031000203A21FA02F00021704721FA02F3D0407E
:10032000C2F1200291400843194670472DE9F04779
:1003300091460F4680460446002614F8015B2DB115
:1003400000F03EF80068405DC007F6D12B2D02D0CA
:100350002D2D18D0641E4A463946204600F034F848
:1003600027B13968A14201D1C7F8008071054FF06B
:1003700002040BD54042002803DD01F0C5FB0460F8
:10038000A007BDE8F08746F48066E4E70028F8DAC5
:1003900001F0BAFB04606FF00040F2E7064C074D35
:1003A00006E0E06840F0010394E807009847103445
:1003B000AC42F6D3FFF7FEFEE41E0008041F00085F
:1003C00000487047E01E00082DE9F05F8246007883
:1003D000002715468B460AF10104B946302801D0A2
:1003E0009DB113E014F8010B0127782803D0582899
:1003F00001D045B10AE00DB1102D07D1002710251D
:1004000014F8010B02E0082500E00A250026B0469A
:100410000EE005FB080005FB06F1012701EB104685
:100420001FFA80F8B6F5803F00D3B94614F8010BE7
:10043000294600F018F80028EBDABBF1000F05D0D0
:100440000FB1641E00E05446CBF80040B9F1000F34
:1004500006D001F059FB02210160C81EBDE8F09FE3
:1004600048EA0640FAE73A2800D2303820F0200265
:10047000412A01D3A2F13700884201D34FF0FF3067
:100480007047FEE7704790F83510022903D08021AD
:10049000416501207047052180F83510006801682A
:1004A00021F0010101600020704700002DE9F84FA4
:1004B00000230324894E8A4F0F25012202FA03F8F4
:1004C0000A6802EA080CC4457ED14A68012A05D0B0
:1004D000022A03D0112A01D0122A19D1D0F808908B
:1004E0005A0004FA02FA29EA0A09D1F80CA00AFA19
:1004F00002F242EA09028260426822EA080291F8A6
:100500000480C8F3001808FA03F848EA02024260BF
:10051000D0F80C805A0004FA02F928EA0908D1F848
:1005200008A00AFA02FA4AEA0808C0F80C80D1F8D2
:100530000480B8F1020F02D0B8F1120F15D14FEAC2
:10054000D30800EB880ADAF820B04FEA43784FEA84
:10055000D86805FA08FE2BEA0E0BD1F810E00EFA67
:1005600008F848EA0B08CAF82080D0F8008028EA8A
:10057000090891F8049009F0030909FA02F242EA25
:10058000080202604A6812F0805F1DD0326842F4AF
:1005900080423260326802F48042009223F003020B
:1005A00002F1804808F59838D8F808284FEA83798E
:1005B0004FEA197905FA09FA22EA0A0AA0F18042FB
:1005C000B2F5003276D000E06BE0A0F18042B2F5E7
:1005D000013271D0A0F18042B2F502326ED0A0F1AA
:1005E0008042B2F503326BD0A0F18042B2F5043202
:1005F00068D0A0F18042B2F5053265D0A0F180420A
:10060000B2F5063262D0A0F18042B2F507325FD077
:10061000A0F18042B2F508325CD0A0F18042B2F580
:10062000093259D00A2202FA09F242EA0A02C8F84B
:1006300008283A6822EA0C02D1F8048018F4803FB6
:1006400001D042EA0C023A60DFF89880D8F8002026
:1006500022EA0C02D1F8049019F4003F01D042EADA
:100660000C02C8F80020DFF88080D8F8002022EAC9
:100670000C02D1F8049019F4801F01D042EA0C0258
:10068000C8F80020DFF86480D8F8002022EA0C02C5
:10069000D1F8049019F4001F01D042EA0C02C8F806
:1006A00000205B1C102BFFF408AFBDE8F88F01E0C1
:1006B00002E003E00022B6E70122B4E70222B2E73B
:1006C0000322B0E70422AEE70522ACE70622AAE740
:1006D0000722A8E70822A6E70922A4E74438024037
:1006E000003C0140043C0140083C01400C3C0140FE
:1006F000426931EA020201D08161704709048161D7
:100700007047002A01D081617047090481617047F8
:1007100001488068704700000C0000200248816892
:1007200002781144816070470C00002010B50B481E
:10073000016841F400710160016841F48061016069
:10074000016841F480710160032000F09DF80020F1
:1007500000F006F800F03EF8002010BD003C02401A
:1007600010B5014688B00022192000F059F8192070
:1007700000F048F813480024016841F001010160CD
:10078000006805A900F001000690684600F04CF9E9
:1007900000F07EF90C494000B0FBF1F10C480B4A27
:1007A000491E026040F2E732C0E90324C0E90114A7
:1007B00000F0F1FB10B1012008B010BD044800F0BA
:1007C00007FCF9E74438024040420F0000000140B6
:1007D000A80000200A4808B5016841F48041016082
:1007E000006800F4804000900548001F016841F057
:1007F00080510160006800F08050009008BD00004A
:100800004438024000280ADB00F01F01012202FAEE
:1008100001F14009800000F1E020C0F800117047AC
:1008200010B4184B1B68C3F30223C3F1070CBCF1CF
:10083000040F01D94FF0040C1C1D072C01D200231A
:1008400000E0DB1E012404FA0CFCACF1010C0CEA04
:100850000101994004FA03F35B1E1A40114300287A
:1008600006DB00F1E020090180F8001410BC70479D
:1008700000F00F0000F1E020090180F8141D10BC09
:10088000704700000CED00E000F00700064A116818
:100890004FF6FF03194041EA002040F0FD7040F0A0
:1008A00080601060704700000CED00E02DE9F0471B
:1008B00004460D46002C13D0DFF85491D9F80000FF
:1008C000EFB200F00F00A8420DD289F80070D9F8FD
:1008D000000000F00F00A84205D00120BDE8F0871D
:1008E0000120BDE8F08720684A4E10F0020F14D0B6
:1008F00010F0040F03D0306840F4E05030602078EE
:1009000010F0080F03D0306840F460403060306869
:10091000A16820F0F00008433060207810F0010F4B
:100920003ED060683C49012808D002280DD0032839
:100930000BD0096811F0020F28D00AE0096811F401
:10094000003F06D10120BDE8F087096811F0007F63
:1009500019D0316821F0030108433060FFF7D8FE59
:1009600080463068616800F00C00B0EB810F17D052
:1009700041F2883AFFF7CCFEA0EB0800504508D9B9
:100980000320BDE8F0870120BDE8F0870120BDE825
:10099000F0873068616800F00C00B0EB810FE9D19E
:1009A000D9F8000000F00F00A8420AD989F80070B9
:1009B000D9F8000000F00F00A84202D00120BDE8E5
:1009C000F087207810F0040F05D03068E16820F43B
:1009D000E05008433060207810F0080F06D03068EF
:1009E000216920F4604040EAC100306000F060F806
:1009F00031680A4AC1F30311515CC84008490860D4
:100A000008480068FFF7ACFE0020BDE8F087000052
:100A1000003C02400838024000380240451E0008F1
:100A200008000020100000200F2202600B4A13680B
:100A300003F003034360136803F0F003836013685B
:100A400003F4E053C360126802F46042D20802610A
:100A50000348006800F00F00086070470838024043
:100A6000003C024001480068704700000800002078
:100A700000B5FFF7F7FF04490968044AC1F3822172
:100A8000515CC84000BD000008380240551E0008F7
:100A900000B5FFF7E7FF04490968044AC1F3423192
:100AA000515CC84000BD000008380240551E0008D7
:100AB00010B51748006810F00C01164816D0431006
:100AC000042912D0082911D1134C216801F03F02EA
:100AD000216811F4800F0AD02068C0F38810A0FBB1
:100AE00003010023FFF780FB09E0184610BD2168D1
:100AF0000023C1F38811A1FB0001FFF775FB2168FA
:100B0000C1F30141491C4900B0FBF1F010BD0000E8
:100B1000083802400024F400043802402DE9F84F60
:100B20000446002C12D02078FB4E10F0010FA6F1E5
:100B3000040563D0301D016801F00C0104290CD0BC
:100B4000006800F00C00082803D010E00120BDE888
:100B5000F88F306810F4800F09D0286810F4003F37
:100B60004CD06068002849D10120BDE8F88F60684A
:100B7000B0F5803F14D0B0F5A02F16D0286820F42F
:100B800080302860286820F480202860606810B3D6
:100B9000FFF7BEFD0746286810F4003F0ED02DE099
:100BA000286840F480302860F0E7286840F480200E
:100BB0002860286840F480302860E7E7FFF7A8FD48
:100BC000C01B642802D90320BDE8F88F286810F400
:100BD000003FF3D012E0FFF79BFD0746286810F4B2
:100BE000003F0BD0FFF794FDC01B642802D90320FF
:100BF000BDE8F88F286810F4003FF3D12078C74F84
:100C000010F0020F4FF0000957D0C548016811F0ED
:100C10000C0F14D0006800F00C00082803D13068D5
:100C200010F4800F0BD0E06880B301203860FFF72C
:100C30006FFD8046286810F0020F12D01EE0286871
:100C400010F0020F05D0E068012802D00120BDE8B5
:100C5000F88F2868216920F0F80040EAC100286078
:100C60002BE0FFF755FDA0EB0800022802D9032076
:100C7000BDE8F88F286810F0020FF2D028682169CB
:100C800020F0F80040EAC100286016E0FFE7C7F84E
:100C90000090FFF73DFD8046286810F0020F0CD051
:100CA000FFF736FDA0EB0800022802D90320BDE8BB
:100CB000F88F286810F0020FF2D1207810F0080F9A
:100CC00035D09848DFF860A26169C1B101210160A7
:100CD000FFF71EFD8046DAF8000010F0020F26D163
:100CE000FFF716FDA0EB0800022802D90320BDE89B
:100CF000F88FDAF8000010F0020FF1D017E0C0F81A
:100D00000090FFF705FD8046DAF8000010F0020FB2
:100D10000DD0FFF7FDFCA0EB0800022802D903204C
:100D2000BDE8F88FDAF8000010F0020FF1D120785A
:100D300010F0040F71D04FF000087C48006810F0EC
:100D4000805F0AD17948016841F0805101600068F4
:100D500000F0805000904FF00108DFF8D4B1DBF8CC
:100D6000000010F4807F1BD1DBF8000040F480709D
:100D7000CBF80000FFF7CCFC8246DBF8000010F453
:100D8000807F0DD1FFF7C4FCA0EB0A00022802D936
:100D90000320BDE8F88FDBF8000010F4807FF1D06D
:100DA000A068DFF890B1012818D005281DD0DBF825
:100DB000000020F00100CBF80000DBF8000020F07C
:100DC0000400CBF80000A06840B3FFF7A1FC824606
:100DD000DBF8000010F0020F14D03EE0DBF800005A
:100DE00040F00100CBF80000EDE7DBF8000040F038
:100DF0000400CBF80000DBF8000040F00100CBF865
:100E00000000E0E7FFF784FCA0EB0A0141F2883024
:100E1000814204D90320BDE8F88F26E005E0DBF825
:100E2000000010F0020FEDD017E0FFF771FC8246D2
:100E3000DBF8000010F0020F0FD0FFF769FCA0EB09
:100E40000A0141F28830814202D90320BDE8F88FBF
:100E5000DBF8000010F0020FEFD1B8F1010F04D160
:100E60003248016821F080510160A069F0B32C493B
:100E7000096801F00C01082968D0022810D0C7F8D1
:100E80006090FFF745FC0446286810F0007F7ED094
:100E9000FFF73EFC001B022853D90320BDE8F88F62
:100EA000C7F86090FFF734FC8046286810F0007F98
:100EB0000CD0FFF72DFCA0EB0800022802D903207C
:100EC000BDE8F88F286810F0007FF2D1216AE06950
:100ED000A26A0843616A4FF0FF33890103EB5202B3
:100EE00041EA0241084394F82C1000E04FE040EA48
:100EF0000160306001203866FFF70AFC044628686C
:100F000010F0007F43D1FFF703FC001B022813D928
:100F10000320BDE8F88F000004380240000047427B
:100F200008380240800E4742743802404038024080
:100F30000070004070380240286810F0007FE2D056
:100F400025E0286810F0007FA2D120E001281CD005
:100F50003068E26900F48001914214D1226A00F005
:100F60003F0191420FD147F6C071626A0140914240
:100F700009D1A26A00F44031914204D1E16A00F043
:100F80007060884203D00120C3E70120C1E7002040
:100F9000BFE77047704710B50446002C03D094F8A3
:100FA0003D0010B107E0012010BD002084F83C0096
:100FB000204600F00CF8022084F83D00211D206836
:100FC00000F06AFB012084F83D00002010BD70474E
:100FD0000168CA6842F00102CA600068816801F0D5
:100FE0000701062903D0016841F0010101600020DA
:100FF0007047704770B50446206801694FF00005DE
:1010000011F0020F17D0C16811F0020F13D0E91EC2
:101010000161012020772068806910F0030F03D060
:101020002046FFF7E6FF05E0204600F09DF8204649
:1010300000F09BF825772068016911F0040F18D0A3
:10104000C16811F0040F14D06FF004010161022097
:1010500020772068806910F4407F03D02046FFF796
:10106000C8FF05E0204600F07FF8204600F07DF83C
:1010700025772068016911F0080F18D0C16811F0B8
:10108000080F14D06FF00801016104202077206858
:10109000C06910F0030F03D02046FFF7AAFF05E058
:1010A000204600F061F8204600F05FF825772068C0
:1010B000016911F0100F18D0C16811F0100F14D091
:1010C0006FF010010161082020772068C06910F4DA
:1010D000407F03D02046FFF78CFF05E0204600F05C
:1010E00043F8204600F041F825772068016911F0A7
:1010F000010F09D0C16811F0010F05D06FF0010197
:101100000161204600F032F82068016911F0800F7B
:1011100009D0C16811F0800F05D06FF08001016126
:101120002046FFF736FF2068016911F0400F09D013
:10113000C16811F0400F05D06FF0400101612046F9
:1011400000F01EF82068016911F0200F0BD0C16873
:1011500011F0200F07D06FF0200101612046BDE89B
:101160007040FFF717BF70BD7047704700680349B4
:10117000884201D1FFF7D2BA704700000000014059
:101180007047704710B5044622681068D1685269EC
:1011900000F00F03002B0AD110F0200F07D011F040
:1011A000200F04D02046BDE8104000F004BB002B07
:1011B00071D002F0010301F4907C53EA0C0C6AD068
:1011C00010F0010F08D011F4807F05D0D4F83CC096
:1011D0004CF0010CC4F83CC010F0040F08D012F021
:1011E000010F05D0D4F83CC04CF0020CC4F83CC050
:1011F00010F0020F06D012F0010F03D0E26B42F0A4
:101200000402E26310F0080F07D001F020021A4335
:1012100003D0E26B42F00802E263E26B002A2ED0B8
:1012200010F0200F05D011F0200F02D0204600F062
:10123000C2FA20684069C0F38010E16B11F0080F1A
:1012400000D108B3204600F09BFA2068416911F0F4
:10125000400F15D0416921F040014161606B58B1E8
:1012600018490165606BFFF70EF9002807D0606B25
:10127000016DBDE8104008472046FFF782FF10BD12
:101280002046FFF77EFF10BD2046FFF77AFF0020C3
:10129000E06310BDFFE710F0800F07D011F0800F62
:1012A00004D02046BDE8104000F0A2BB10F0400F73
:1012B000EFD011F0400FECD02046BDE8104000F018
:1012C0006DBA00007117000870B50446002C04D0F8
:1012D00094F83900002510B106E0012070BD84F8B3
:1012E0003850204600F022F8242084F83900206885
:1012F000C16821F40051C160204600F0ABFA2068BB
:10130000016921F4904101612068416921F02A01BD
:1013100041612068C16841F40051C160E56320204B
:1013200084F8390084F83A00002070BDF0B587B029
:10133000044614216846FEF78FFF2A49284F266885
:101340000025284A1039032302242748BE4220D111
:10135000156845F400251560126802F40022059214
:101360000A6842F001020A60096801F00101059172
:101370000121CDE90213CDE9003408210491694629
:10138000FFF794F8002211463420FFF749FA342081
:1013900021E0164FBE4220D1166846F40036166092
:1013A000126802F4003205920A6842F001020A60F3
:1013B000096801F0010105910C218DE83200072137
:1013C000CDE903316946FFF771F800221146262066
:1013D000FFF726FA2620FFF715FA07B0F0BD000048
:1013E000004C0040403802400000024000440040F1
:1013F00090F83A30202B01D002207047F9B1F2B1B9
:1014000090F83830012B1CD081628285C285002182
:10141000C163222280F83A2080F838100168CA6837
:1014200042F48072CA6001684A6942F001024A616E
:101430000068C16841F02001C160002070470120B0
:10144000704702207047000010B588B00122114992
:101450001148FFF7CDFF0F480E4C0078A0704128CF
:1014600003D06178012902D006E001216170E178A2
:101470000DF80100491CE170422809D1694604A811
:10148000FEF7FCFEE17804A800F0AEFC0020E0705E
:1014900008B010BD00000020680000202DE9F843CE
:1014A00004460D4690461E4694F83900202802D086
:1014B0000220BDE8F8836DB3B8F1000F2AD094F88C
:1014C0003800012829D0012084F838004FF00009A5
:1014D000C4F83C90212084F83900FFF719F9074639
:1014E000A4F82480A4F8268084F83890E08CA0B377
:1014F000E08C401EE084A068B0F5805F10D03B46D1
:10150000002280212046009600F0A5FAF0B10320C9
:10151000BDE8F8830120BDE8F8830220BDE8F88328
:101520003B46002280212046009600F094FA10B13C
:101530000320BDE8F88328882168C0F308004860CC
:10154000206908B16D1C05E0AD1C03E0216815F8A9
:10155000010B4860E08C0028CAD13B4600224021A4
:101560002046009600F077FA10B10320BDE8F8831A
:10157000202084F839000020BDE8F8837047FEE79A
:1015800070B586B014216846FEF766FE1248002446
:10159000016841F001010160016801F0010105915C
:1015A000016841F04001016000680C4E00F040000D
:1015B0004FF4C0450590224629463046FFF7A1F872
:1015C00001200095CDE90104694630460394FEF7F9
:1015D0006DFF06B070BD00003038024000180240B8
:1015E000FEE770477047704730B593B030216846CA
:1015F000FEF732FE14210CA8FEF72EFE1A48002535
:10160000016841F080510160006800F08050119045
:101610001648016821F4404141F4804101600068AE
:10162000022400F440401190012003901020049007
:10163000009406940820CDE907504820CDE909041C
:1016400003200B906846FFF769FA0CA90F2081E888
:1016500031004FF4A0500F90E002109002210CA82E
:10166000FFF724F913B030BD40380240007000404D
:101670000548016841F47001016003494FF00060C2
:10168000803908607047000088ED00E00148FFF7EE
:10169000B1BC0000A8000020F0B402682C4B2D4C17
:1016A0002D4D2E4EDFF8B8C098420AD0B0F1804FD1
:1016B00007D0A04205D0A84203D0B04201D0604577
:1016C00003D122F070024F683A43984228D0B0F11B
:1016D000804F25D0A04223D0A84221D0B0421FD0B5
:1016E00060451DD0A0F18044B4F5A03418D0A0F11D
:1016F0008044B4F5A23413D0A0F18044B4F5A434EE
:101700000ED0A0F18044B4F5C05409D0A0F18044BB
:10171000B4F5E05404D0A0F18044B4F5005403D1F2
:1017200022F44072CC6822434C6922F080022243AA
:1017300002608A68C2620A688262984201D060458B
:1017400001D10969016301214161F0BC70470000CA
:10175000000001400004004000080040000C004070
:10176000000401400148FFF70DBD000028000020E3
:1017700010B5806B0021C185C184FFF702FD10BD4B
:101780000168CA6822F49072CA6001684A6922F04E
:1017900001024A61202180F83A10704710B50168B3
:1017A000CA6822F04002CA60202180F83910FFF791
:1017B000E5FE002010BD10B590F83A10222901D0A6
:1017C000022010BD8168B1F5805F11D0016919B3A5
:1017D0000168496801F07F02816A4B1C83620A70CC
:1017E000C18D491E0904090CC1851CD0002010BD03
:1017F000816A02693AB102685268D2B20A80816A8B
:10180000491C8162ECE702685268C2F308020A8050
:10181000816A891C8162E3E701684A68816A4B1C1E
:1018200083620A70DCE70168CA6822F02002CA609D
:101830000168CA6822F48072CA6001684A6922F0AD
:1018400001024A61202180F83A10FFF7FDFD0020D7
:1018500010BD00002DE9F041044620680169E268EE
:1018600021F44051114301612169A068E2690843F4
:101870006169114301432068C26822F4037222F4B3
:1018800014421143C16020684169A26921F440718A
:1018900011434161E0695349534A1927534D322698
:1018A0004FF00008B0F5004F27D02068904201D0DB
:1018B000884274D1FFF7ECF801466068830F82001C
:1018C000A1FB0701FEF790FC0146A5FB00204009A3
:1018D0006FF01802424301EB820106EB0111A5FBF8
:1018E0000121490901F0F00202EB001001F00F01A3
:1018F000084421688860BDE8F0812068904201D0EA
:10190000884225D1FFF7C4F8014660680218A1FBA0
:10191000070148EB0803FEF767FC0346A5FB001030
:10192000410918460A016FF01803594300EB810082
:1019300006EBC000A5FB0010400900F0F80102EB27
:10194000410100F00700084421688860BDE8F0818B
:10195000FFF78EF8014660680218A1FB070148EB0B
:101960000803FEF741FC0346A5FB00104109184699
:101970000A016FF01803594300EB810006EBC00029
:10198000A5FB0010400900F0F80102EB410100F056
:101990000700084421688860BDE8F081FFE7FFF791
:1019A00067F801466068830F8200A1FB0701FEF71C
:1019B0001BFC0146A5FB002040096FF018024243C2
:1019C00001EB820106EB0111A5FB0121490901F0A0
:1019D000F00202EB001001F00F010844216888605A
:1019E000BDE8F08100140140001001401F85EB515B
:1019F00090F83910212901D0022070478168B1F593
:101A0000805F0CD0016A4A1C02620268097851604A
:101A1000C18C491E0904090CC18410D019E0016A67
:101A200002680988C1F308015160016919B1016AAE
:101A3000491C0162ECE7016A891C0162E8E7016860
:101A4000CA6822F08002CA600068C16841F04001A3
:101A5000C160002070472DE9F0410446069D88468C
:101A600017461E462068006838EA000020D0002093
:101A7000B84227D1B5F1FF3F1CD025B1FEF748FE93
:101A8000801BA84216D92068C16821F4D071C160BA
:101A90002068416921F001014161202084F839006A
:101AA00084F83A00002084F838000320BDE8F08173
:101AB0000120DDE72068006838EA000005D000203A
:101AC000B842D7D00020BDE8F0810120F8E700003F
:101AD0000148FFF757BB000068000020FEE7000048
:101AE0000FB4084B10B504A902AA039800F01FF820
:101AF000044602A9002000F085F8204610BC5DF8DD
:101B000014FB0000051C000800487047240000205A
:101B100002E008C8121F08C1002AFAD170477047B6
:101B2000002001E001C1121F002AFBD170472DE9FE
:101B3000F84F9946924688460546002706E0252834
:101B40000AD051464A4690476D1C7F1C28780028D1
:101B5000F5D13846BDE8F88F002315F8011F184667
:101B60002E2915D115F8011F04232A290DD06FF055
:101B70002F022978A1F13004092C09D800EB80004C
:101B800002EB400008446D1CF3E758F8040B6D1C91
:101B90002A78002ADDD0632A07D0732A0FD0104696
:101BA00051464A4690477F1C2AE018F8042B8DF8CE
:101BB000002000218DF801106E46012103E058F845
:101BC000046B4FF0FF315A074FF0000401D409E0D5
:101BD000641C84420BDA8C42FADB325D002AF7D1B6
:101BE00005E0641C8C42FCDB305D0028F9D1274401
:101BF00004E016F8010B51464A469047641EF8D29D
:101C00006D1CA3E70A68531C0B601070704700003E
:101C10001FB50EA13E28D1E90021CDE900210D4AD2
:101C2000D2E90012CDE902120B4A0BD0492808D1A3
:101C30004FF400511046FEF75BFD02A9684600F024
:101C40009DF81FBD4FF48041F4E70000767474697D
:101C500000000000401E00080018024010B50028D7
:101C600021D0114B0022001F196803E0814203D8E4
:101C70000A4649680029F9D152B11368841A9C4276
:101C800004D1006818441060104602E0506000E083
:101C9000186039B102680B1A934203D10B681A44D9
:101CA00002604968416010BD1C000020FEF73EFD47
:101CB000FFF79AFCFFF764FC124811494FF41655E0
:101CC00000240160C0E901540C26C460C0E9044648
:101CD0008461C461FFF7F8FA0A480B49403001609B
:101CE000C0E90154C460C0E904468461C461FFF7DF
:101CF000EBFA0448012205494030FFF779FBFEE783
:101D0000004C004028000020004400400400002057
:101D1000F0B50B30154D20F007010024144A0FE0F8
:101D200003688B420BD38B4205D95E1A4318476870
:101D3000C3E9006700E04368136002C004E0021DCD
:101D400010680028ECD12046002802D1286808B18C
:101D50000020F0BD064A07481060074A121A22F018
:101D60000702C0E9002401202860D7E720000020F6
:101D70001C000020EC000020E802002010B50C46FA
:101D800013A18CB00968089112A10022096804927D
:101D90000991014602920392059206A8FEF76EFA97
:101DA00021460AA8FEF76AFA09A90AA8CDE90001A6
:101DB00006AB08AA08A102A8FFF792FE4FF47A73B7
:101DC0000F2202A90748FFF769FB0CB010BD000005
:101DD000410000004200000025732C25732C257360
:101DE0002C2573002800002038B50546FEF73FFA81
:101DF00012A0006800902846FEF739FA8000FFF72D
:101E000087FF044669462846FEF742FA002506E0A9
:101E100044F8250069460020FEF73AFA6D1C0028B8
:101E2000F6D16068FEF756FAA068FEF753FAC0B222
:101E3000FFF7EEFE2046FFF711FF38BD2C00000033
:101E40003536000000000000000000000001020321
:101E500004060708090000000001020304004040D6
:101E6000404040404040404141414141404040406D
:101E700040404040404040404040404040400502DB
:101E800002020202020202020202020202022020F6
:101E900020202020202020200202020202020290A4
:101EA00090909090901010101010101010101010B2
:101EB00010101010101010101002020202020288FE
:101EC0008888888888080808080808080808080812
:101ED0000808080808080808080202020240000072
:101EE0005E1E0008041F00080000002028000000FB
:101EF000101B00082C1F000828000020C00600004E
:101F0000201B000800000000000000000024F40076
:101F100001000000100000000000000000000000B0
:0C1F2000000000000000000000000000B5
:04000005080001AD41
:00000001FF
