:020000040800F2
:10000000E0040020C50100086B1400080714000874
:1000100069140008D10200086519000800000000FA
:100020000000000000000000000000006F14000845
:10003000D3020008000000006D140008DD01000874
:10004000DF010008DF010008DF010008DF01000810
:10005000DF010008DF010008DF010008DF01000800
:10006000DF010008DF010008DF010008DF010008F0
:10007000DF010008DF010008DF010008DF010008E0
:10008000DF010008DF010008DF010008DF010008D0
:10009000DF010008DF010008DF010008DF010008C0
:1000A000DF01000815150008DF010008DF01000866
:1000B000DF010008DF010008DF010008DF010008A0
:1000C000DF010008DF010008DF010008DF01000890
:1000D000DF010008DF01000859190008DF010008EE
:1000E000DF010008DF010008DF010008DF01000870
:1000F000DF010008DF010008DF010008DF01000860
:10010000DF010008DF010008DF010008DF0100084F
:10011000ED150008DF010008DF010008DF0100081D
:10012000DF010008DF010008DF010008DF0100082F
:10013000DF010008DF010008DF010008DF0100081F
:10014000DF010008DF010008DF010008DF0100080F
:10015000DF010008DF010008DF010008DF010008FF
:10016000DF010008DF010008DF010008DF010008EF
:10017000DF010008DF010008DF01000800000000C7
:10018000DF010008DF010008DF010008DF010008CF
:10019000DF010008DF010008DF010008DF010008BF
:1001A000DF010008DF010008DF010008DFF810D0E0
:1001B00000F07CF80048004785190008AFF3008084
:1001C000E00400200648804706480047FEE7FEE7B7
:1001D000FEE7FEE7FEE7FEE7FEE7FEE7FEE7FEE7F7
:1001E000F9140008AD0100082DE9F05F0546002074
:1001F00092469B4688460646814640241BE0284698
:1002000041464746224600F041F853465A46C01A36
:10021000914110D311461846224600F028F82D1AB5
:1002200067EB01084F4622460120002100F01FF82D
:1002300017EB00094E41201EA4F10104DFDC484603
:1002400031462A464346BDE8F09FD2B201E000F8AD
:10025000012B491EFBD270470022F6E710B513466A
:100260000A4604461946FFF7F0FF204610BD202A33
:1002700004DB203A00FA02F1002070479140C2F1FD
:10028000200320FA03F3194390407047202A04DB2F
:10029000203A21FA02F00021704721FA02F3D040FF
:1002A000C2F120029140084319467047064C074DA1
:1002B00006E0E06840F0010394E807009847103436
:1002C000AC42F6D3FFF776FF181A0008381A000878
:1002D000FEE7704790F83510022903D08021416570
:1002E00001207047052180F835100068016821F071
:1002F000010101600020704770B5044600F042F92A
:100300000546B4F1FF3F02D004480078044400F0F1
:1003100039F9401BA042FAD370BD00001400002040
:100320002DE9F84F00230324894E8A4F0F2501221F
:1003300002FA03F80A6802EA080CC4457ED14A684A
:10034000012A05D0022A03D0112A01D0122A19D17C
:10035000D0F808905A0004FA02FA29EA0A09D1F8FA
:100360000CA00AFA02F242EA09028260426822EA1A
:10037000080291F80480C8F3001808FA03F848EA64
:1003800002024260D0F80C805A0004FA02F928EA0E
:100390000908D1F808A00AFA02FA4AEA0808C0F8DF
:1003A0000C80D1F80480B8F1020F02D0B8F1120F1E
:1003B00015D14FEAD30800EB880ADAF820B04FEAEB
:1003C00043784FEAD86805FA08FE2BEA0E0BD1F8FD
:1003D00010E00EFA08F848EA0B08CAF82080D0F8B6
:1003E000008028EA090891F8049009F0030909FA45
:1003F00002F242EA080202604A6812F0805F1DD0F1
:10040000326842F480423260326802F480420092E4
:1004100023F0030202F1804808F59838D8F808283C
:100420004FEA83794FEA197905FA09FA22EA0A0AAA
:10043000A0F18042B2F5003276D000E06BE0A0F18E
:100440008042B2F5013271D0A0F18042B2F50232A1
:100450006ED0A0F18042B2F503326BD0A0F18042A1
:10046000B2F5043268D0A0F18042B2F5053265D011
:10047000A0F18042B2F5063262D0A0F18042B2F51E
:1004800007325FD0A0F18042B2F508325CD0A0F113
:100490008042B2F5093259D00A2202FA09F242EA40
:1004A0000A02C8F808283A6822EA0C02D1F8048047
:1004B00018F4803F01D042EA0C023A60DFF89880DD
:1004C000D8F8002022EA0C02D1F8049019F4003F79
:1004D00001D042EA0C02C8F80020DFF88080D8F88A
:1004E000002022EA0C02D1F8049019F4801F01D0F8
:1004F00042EA0C02C8F80020DFF86480D8F8002037
:1005000022EA0C02D1F8049019F4001F01D042EA4B
:100510000C02C8F800205B1C102BFFF408AFBDE8EC
:10052000F88F01E002E003E00022B6E70122B4E721
:100530000222B2E70322B0E70422AEE70522ACE7CD
:100540000622AAE70722A8E70822A6E70922A4E7CD
:1005500044380240003C0140043C0140083C01405A
:100560000C3C0140426931EA020201D081617047CE
:10057000090481617047002A01D081617047090434
:1005800081617047014880687047000014000020B6
:10059000024881680278114481607047140000208D
:1005A00010B50B48016841F400710160016841F425
:1005B00080610160016841F480710160032000F0F6
:1005C0009DF8002000F006F800F03EF8002010BD75
:1005D000003C024010B5014688B00022192000F00E
:1005E00059F8192000F048F813480024016841F038
:1005F00001010160006805A900F00100069068464D
:1006000000F04CF900F07EF90C494000B0FBF1F12C
:100610000C480B4A491E026040F2E732C0E903244D
:10062000C0E9011400F0F1FB10B1012008B010BDC9
:10063000044800F007FCF9E74438024040420F004C
:1006400000000140A00000200A4808B5016841F4FC
:1006500080410160006800F4804000900548001F60
:10066000016841F080510160006800F08050009006
:1006700008BD00004438024000280ADB00F01F01DA
:10068000012202FA01F14009800000F1E020C0F8E7
:100690000011704710B4184B1B68C3F30223C3F159
:1006A000070CBCF1040F01D94FF0040C1C1D072CE2
:1006B00001D2002300E0DB1E012404FA0CFCACF1A3
:1006C000010C0CEA0101994004FA03F35B1E1A4085
:1006D0001143002806DB00F1E020090180F8001436
:1006E00010BC704700F00F0000F1E020090180F815
:1006F000141D10BC704700000CED00E000F0070076
:10070000064A11684FF6FF03194041EA002040F005
:10071000FD7040F080601060704700000CED00E05C
:100720002DE9F04704460D46002C13D0DFF8549114
:10073000D9F80000EFB200F00F00A8420DD289F8FE
:100740000070D9F8000000F00F00A84205D0012089
:10075000BDE8F0870120BDE8F08720684A4E10F020
:10076000020F14D010F0040F03D0306840F4E050B2
:100770003060207810F0080F03D0306840F46040FB
:1007800030603068A16820F0F000084330602078C5
:1007900010F0010F3ED060683C49012808D00228C3
:1007A0000DD003280BD0096811F0020F28D00AE001
:1007B000096811F4003F06D10120BDE8F0870968FF
:1007C00011F0007F19D0316821F003010843306037
:1007D000FFF7D8FE80463068616800F00C00B0EB8F
:1007E000810F17D041F2883AFFF7CCFEA0EB08004A
:1007F000504508D90320BDE8F0870120BDE8F08707
:100800000120BDE8F0873068616800F00C00B0EBB3
:10081000810FE9D1D9F8000000F00F00A8420AD9F1
:1008200089F80070D9F8000000F00F00A84202D04B
:100830000120BDE8F087207810F0040F05D0306863
:10084000E16820F4E05008433060207810F0080F91
:1008500006D03068216920F4604040EAC100306071
:1008600000F060F831680A4AC1F30311515CC840D6
:100870000849086008480068FFF7ACFE0020BDE8A2
:10088000F0870000003C0240083802400038024077
:10089000001A000810000020180000200F2202603B
:1008A0000B4A136803F003034360136803F0F0037B
:1008B0008360136803F4E053C360126802F460427B
:1008C000D20802610348006800F00F00086070471A
:1008D00008380240003C02400148006870470000B0
:1008E0001000002000B5FFF7F7FF04490968044A2B
:1008F000C1F38221515CC84000BD000008380240AD
:10090000101A000800B5FFF7E7FF04490968044A18
:10091000C1F34231515CC84000BD000008380240BC
:10092000101A000810B51748006810F00C0116489E
:1009300016D04310042912D0082911D1134C216874
:1009400001F03F02216811F4800F0AD02068C0F343
:100950008810A0FB03010023FFF746FC09E01846BE
:1009600010BD21680023C1F38811A1FB0001FFF72E
:100970003BFC2168C1F30141491C4900B0FBF1F087
:1009800010BD0000083802400024F4000438024082
:100990002DE9F84F0446002C12D02078FB4E10F0C1
:1009A000010FA6F1040563D0301D016801F00C01B0
:1009B00004290CD0006800F00C00082803D010E0D7
:1009C0000120BDE8F88F306810F4800F09D0286846
:1009D00010F4003F4CD06068002849D10120BDE8E8
:1009E000F88F6068B0F5803F14D0B0F5A02F16D016
:1009F000286820F480302860286820F4802028604F
:100A0000606810B3FFF7BEFD0746286810F4003F8A
:100A10000ED02DE0286840F480302860F0E7286888
:100A200040F480202860286840F480302860E7E7A0
:100A3000FFF7A8FDC01B642802D90320BDE8F88F8A
:100A4000286810F4003FF3D012E0FFF79BFD074643
:100A5000286810F4003F0BD0FFF794FDC01B6428FA
:100A600002D90320BDE8F88F286810F4003FF3D1C5
:100A70002078C74F10F0020F4FF0000957D0C5483B
:100A8000016811F00C0F14D0006800F00C00082869
:100A900003D1306810F4800F0BD0E06880B30120E0
:100AA0003860FFF76FFD8046286810F0020F12D003
:100AB0001EE0286810F0020F05D0E068012802D07F
:100AC0000120BDE8F88F2868216920F0F80040EA8D
:100AD000C10028602BE0FFF755FDA0EB08000228BD
:100AE00002D90320BDE8F88F286810F0020FF2D079
:100AF0002868216920F0F80040EAC100286016E06B
:100B0000FFE7C7F80090FFF73DFD8046286810F02A
:100B1000020F0CD0FFF736FDA0EB0800022802D927
:100B20000320BDE8F88F286810F0020FF2D120787A
:100B300010F0080F35D09848DFF860A26169C1B1A4
:100B400001210160FFF71EFD8046DAF8000010F079
:100B5000020F26D1FFF716FDA0EB0800022802D9EC
:100B60000320BDE8F88FDAF8000010F0020FF1D092
:100B700017E0C0F80090FFF705FD8046DAF80000A6
:100B800010F0020F0DD0FFF7FDFCA0EB08000228CB
:100B900002D90320BDE8F88FDAF8000010F0020F48
:100BA000F1D1207810F0040F71D04FF000087C488C
:100BB000006810F0805F0AD17948016841F08051E7
:100BC0000160006800F0805000904FF00108DFF8ED
:100BD000D4B1DBF8000010F4807F1BD1DBF80000FB
:100BE00040F48070CBF80000FFF7CCFC8246DBF8C5
:100BF000000010F4807F0DD1FFF7C4FCA0EB0A00C9
:100C0000022802D90320BDE8F88FDBF8000010F4B9
:100C1000807FF1D0A068DFF890B1012818D00528B6
:100C20001DD0DBF8000020F00100CBF80000DBF85D
:100C3000000020F00400CBF80000A06840B3FFF7EC
:100C4000A1FC8246DBF8000010F0020F14D03EE059
:100C5000DBF8000040F00100CBF80000EDE7DBF826
:100C6000000040F00400CBF80000DBF8000040F08A
:100C70000100CBF80000E0E7FFF784FCA0EB0A01DD
:100C800041F28830814204D90320BDE8F88F26E084
:100C900005E0DBF8000010F0020FEDD017E0FFF7E1
:100CA00071FC8246DBF8000010F0020F0FD0FFF756
:100CB00069FCA0EB0A0141F28830814202D903208D
:100CC000BDE8F88FDBF8000010F0020FEFD1B8F1AB
:100CD000010F04D13248016821F080510160A06900
:100CE000F0B32C49096801F00C01082968D00228EA
:100CF00010D0C7F86090FFF745FC0446286810F054
:100D0000007F7ED0FFF73EFC001B022853D9032052
:100D1000BDE8F88FC7F86090FFF734FC804628687C
:100D200010F0007F0CD0FFF72DFCA0EB080002288C
:100D300002D90320BDE8F88F286810F0007FF2D1B7
:100D4000216AE069A26A0843616A4FF0FF338901B2
:100D500003EB520241EA0241084394F82C1000E0F0
:100D60004FE040EA0160306001203866FFF70AFC7E
:100D70000446286810F0007F43D1FFF703FC001BF6
:100D8000022813D90320BDE8F88F00000438024080
:100D90000000474208380240800E47427438024043
:100DA000403802400070004070380240286810F05F
:100DB000007FE2D025E0286810F0007FA2D120E07B
:100DC00001281CD03068E26900F48001914214D1FE
:100DD000226A00F03F0191420FD147F6C071626A6A
:100DE0000140914209D1A26A00F44031914204D1FC
:100DF000E16A00F07060884203D00120C3E701205F
:100E0000C1E70020BFE77047704710B50446002CCB
:100E100003D094F83D0010B107E0012010BD002080
:100E200084F83C00204600F00CF8022084F83D00D5
:100E3000211D206800F074FB012084F83D00002093
:100E400010BD70470168CA6842F00102CA600068BC
:100E5000816801F00701062903D0016841F0010112
:100E6000016000207047704770B504462068016932
:100E70004FF0000511F0020F17D0C16811F0020FFA
:100E800013D0E91E0161012020772068806910F0ED
:100E9000030F03D02046FFF7E6FF05E0204600F0F1
:100EA0009DF8204600F09BF825772068016911F035
:100EB000040F18D0C16811F0040F14D06FF00401B2
:100EC0000161022020772068806910F4407F03D000
:100ED0002046FFF7C8FF05E0204600F07FF82046D7
:100EE00000F07DF825772068016911F0080F18D00F
:100EF000C16811F0080F14D06FF0080101610420DF
:100F000020772068C06910F0030F03D02046FFF758
:100F1000AAFF05E0204600F061F8204600F05FF8E7
:100F200025772068016911F0100F18D0C16811F001
:100F3000100F14D06FF01001016108202077206895
:100F4000C06910F4407F03D02046FFF78CFF05E016
:100F5000204600F043F8204600F041F8257720684D
:100F6000016911F0010F09D0C16811F0010F05D01E
:100F70006FF001010161204600F032F8206801693C
:100F800011F0800F09D0C16811F0800F05D06FF00B
:100F9000800101612046FFF736FF2068016911F0EA
:100FA000400F09D0C16811F0400F05D06FF040012B
:100FB0000161204600F01EF82068016911F0200F41
:100FC0000BD0C16811F0200F07D06FF02001016134
:100FD0002046BDE87040FFF717BF70BD70477047EF
:100FE00000680349884201D1FFF7D2BA7047000078
:100FF000000001407047704710B504462268106831
:10100000D168526900F00F03002B0AD110F0200FB5
:1010100007D011F0200F04D02046BDE8104000F0AA
:101020000EBB002B71D002F0010301F4907C53EA57
:101030000C0C6AD010F0010F08D011F4807F05D09D
:10104000D4F83CC04CF0010CC4F83CC010F0040FC4
:1010500008D012F0010F05D0D4F83CC04CF0020CBF
:10106000C4F83CC010F0020F06D012F0010F03D0FC
:10107000E26B42F00402E26310F0080F07D001F0C7
:1010800020021A4303D0E26B42F00802E263E26BF3
:10109000002A2ED010F0200F05D011F0200F02D022
:1010A000204600F0CCFA20684069C0F38010E16B64
:1010B00011F0080F00D108B3204600F0A5FA20680F
:1010C000416911F0400F15D0416921F040014161A3
:1010D000606B58B118490165606BFFF7FBF8002899
:1010E00007D0606B016DBDE8104008472046FFF750
:1010F00082FF10BD2046FFF77EFF10BD2046FFF7A0
:101100007AFF0020E06310BDFFE710F0800F07D0EA
:1011100011F0800F04D02046BDE8104000F0ACBBB9
:1011200010F0400FEFD011F0400FECD02046BDE89A
:10113000104000F077BA0000F915000870B50446B9
:10114000002C04D094F83900002510B106E00120ED
:1011500070BD84F83850204600F022F8242084F82E
:1011600039002068C16821F40051C160204600F0B8
:10117000B5FA2068016921F4904101612068416954
:1011800021F02A0141612068C16841F40051C16029
:10119000E563202084F8390084F83A00002070BD0F
:1011A000F0B587B0044614216846FFF755F82A4980
:1011B000284F26680025284A10390323022427488F
:1011C000BE4220D1156845F400251560126802F46E
:1011D000002205920A6842F001020A60096801F0E3
:1011E000010105910121CDE90213CDE90034082167
:1011F00004916946FFF794F8002211463420FFF766
:1012000049FA342021E0164FBE4220D1166846F438
:1012100000361660126802F4003205920A6842F045
:1012200001020A60096801F0010105910C218DE8B5
:1012300032000721CDE903316946FFF771F800223A
:1012400011462620FFF726FA2620FFF715FA07B0E9
:10125000F0BD0000004C0040403802400000024059
:101260000044004090F83A30202B01D00220704713
:10127000F9B1F2B190F83830012B1CD0816282852F
:10128000C2850021C163222280F83A2080F83810FC
:101290000168CA6842F48072CA6001684A6942F013
:1012A00001024A610068C16841F02001C16000206C
:1012B00070470120704702207047000010B50122DE
:1012C00016491748FFF7CEFF1448441E017808302E
:1012D0002172412903D0E279012A02D005E00122DE
:1012E000E27122788154521C2270422914D1417833
:1012F000A1708178E170C1782171017961714079C3
:10130000A071064906484FF47A73227808314038B4
:1013100000F008F80020207010BD0000010000203F
:10132000600000202DE9F84304460D4690461E4615
:1013300094F83900202802D00220BDE8F8836DB36C
:10134000B8F1000F2AD094F83800012829D00120E4
:1013500084F838004FF00009C4F83C90212084F84C
:101360003900FFF70FF90746A4F82480A4F8268077
:1013700084F83890E08CA0B3E08C401EE084A06834
:10138000B0F5805F10D03B460022802120460096B9
:1013900000F0A5FAF0B10320BDE8F8830120BDE814
:1013A000F8830220BDE8F8833B46002280212046D6
:1013B000009600F094FA10B10320BDE8F883288865
:1013C0002168C0F308004860206908B16D1C05E081
:1013D000AD1C03E0216815F8010B4860E08C002883
:1013E000CAD13B46002240212046009600F077FA01
:1013F00010B10320BDE8F883202084F839000020D4
:10140000BDE8F8837047FEE770B586B014216846E2
:10141000FEF722FF12480024016841F0010101603B
:10142000016801F001010591016841F0400101608E
:1014300000680C4E00F040004FF4C0450590224675
:1014400029463046FFF797F801200095CDE90104C1
:10145000694630460394FEF763FF06B070BD000096
:101460003038024000180240FEE77047704770476E
:1014700030B593B030216846FEF7EEFE14210CA87B
:10148000FEF7EAFE1A480025016841F0805101602C
:10149000006800F0805011901648016821F4404126
:1014A00041F4804101600068022400F44040119042
:1014B0000120039010200490009406940820CDE9A8
:1014C00007504820CDE9090403200B906846FFF738
:1014D0005FFA0CA90F2081E831004FF4A0500F9063
:1014E000E002109002210CA8FFF71AF913B030BDEA
:1014F00040380240007000400548016841F4700126
:10150000016003494FF000608039086070470000B7
:1015100088ED00E00148FFF7A7BC0000A000002014
:10152000F0B402682C4B2D4C2D4D2E4EDFF8B8C078
:1015300098420AD0B0F1804F07D0A04205D0A8420F
:1015400003D0B04201D0604503D122F070024F6851
:101550003A43984228D0B0F1804F25D0A04223D002
:10156000A84221D0B0421FD060451DD0A0F18044D8
:10157000B4F5A03418D0A0F18044B4F5A23413D04F
:10158000A0F18044B4F5A4340ED0A0F18044B4F5A9
:10159000C05409D0A0F18044B4F5E05404D0A0F1C7
:1015A0008044B4F5005403D122F44072CC68224345
:1015B0004C6922F08002224302608A68C2620A6893
:1015C0008262984201D0604501D10969016301211D
:1015D0004161F0BC70470000000001400004004081
:1015E00000080040000C0040000401400148FFF7E3
:1015F00003BD00002000002010B5806B0021C185D4
:10160000C184FFF7F8FC10BD0168CA6822F490722B
:10161000CA6001684A6922F001024A61202180F80B
:101620003A10704710B50168CA6822F04002CA60DB
:10163000202180F83910FFF7E5FE002010BD10B51D
:1016400090F83A10222901D0022010BD8168B1F52E
:10165000805F11D0016919B30168496801F07F0208
:10166000816A4B1C83620A70C18D491E0904090CF2
:10167000C1851CD0002010BD816A02693AB10268A0
:101680005268D2B20A80816A491C8162ECE7026822
:101690005268C2F308020A80816A891C8162E3E70A
:1016A00001684A68816A4B1C83620A70DCE7016842
:1016B000CA6822F02002CA600168CA6822F48072F7
:1016C000CA6001684A6922F001024A61202180F85B
:1016D0003A10FFF7F3FD002010BD00002DE9F041A6
:1016E000044620680169E26821F440511143016118
:1016F0002169A068E26908436169114301432068D8
:10170000C26822F4037222F414421143C1602068BB
:101710004169A26921F4407111434161E069534973
:10172000534A1927534D32264FF00008B0F5004FA9
:1017300027D02068904201D0884274D1FFF7E2F8A8
:1017400001466068830F8200A1FB0701FEF74CFD94
:101750000146A5FB002040096FF01802424301EB4F
:10176000820106EB0111A5FB0121490901F0F002FC
:1017700002EB001001F00F01084421688860BDE809
:10178000F0812068904201D0884225D1FFF7BAF855
:10179000014660680218A1FB070148EB0803FEF749
:1017A00023FD0346A5FB0010410918460A016FF00E
:1017B0001803594300EB810006EBC000A5FB0010A5
:1017C000400900F0F80102EB410100F00700084475
:1017D00021688860BDE8F081FFF784F80146606801
:1017E0000218A1FB070148EB0803FEF7FDFC0346C6
:1017F000A5FB0010410918460A016FF01803594370
:1018000000EB810006EBC000A5FB0010400900F0D2
:10181000F80102EB410100F00700084421688860EC
:10182000BDE8F081FFE7FFF75DF801466068830FD0
:101830008200A1FB0701FEF7D7FC0146A5FB0020B3
:1018400040096FF01802424301EB820106EB0111DF
:10185000A5FB0121490901F0F00202EB001001F0A3
:101860000F01084421688860BDE8F0810014014040
:10187000001001401F85EB5190F83910212901D04B
:10188000022070478168B1F5805F0CD0016A4A1C64
:101890000262026809785160C18C491E0904090C72
:1018A000C18410D019E0016A02680988C1F30801F7
:1018B0005160016919B1016A491C0162ECE7016AD2
:1018C000891C0162E8E70168CA6822F08002CA60E8
:1018D0000068C16841F04001C160002070472DE9F7
:1018E000F0410446069D884617461E46206800685B
:1018F00038EA000020D00020B84227D1B5F1FF3FE0
:101900001CD025B1FEF73EFE801BA84216D92068E8
:10191000C16821F4D071C1602068416921F00101E2
:101920004161202084F8390084F83A00002084F8CE
:1019300038000320BDE8F0810120DDE72068006861
:1019400038EA000005D00020B842D7D00020BDE81A
:10195000F0810120F8E700000148FFF74DBB0000CF
:1019600060000020FEE702E008C8121F08C1002A3C
:10197000FAD170477047002001E001C1121F002A10
:10198000FBD17047FEF70CFEFFF772FDFFF73CFD41
:10199000174816494FF4165500240160C0E9015458
:1019A0000C26C460C0E904468461C461FFF7C6FB2D
:1019B0000F48104940300160C0E90154C460C0E9DB
:1019C00004468461C461FFF7B9FB094801220A4952
:1019D0004030FFF747FC094D4FF48044214628462C
:1019E000FEF7C0FDFA20FEF787FCF7E7004C004049
:1019F00020000020004400400100002000180240A8
:101A000000000000000000000102030406070809AE
:101A10000000000001020304381A00080000002042
:101A20002000000066190008581A00082000002055
:101A3000C00400007619000800000000000000004B
:101A400000000000000000000024F400010000007D
:081A500010000000000000007E
:04000005080001AD41
:00000001FF
